:100000000C9437000C946E020C946E020C946E02E9
:100010000C946E020C946E020C946E020C946E02A0
:100020000C946E020C946E020C946E020C946E0290
:100030000C946E020C946E020C946E020C946E0280
:100040000C946E020C946E020C946E020C946E0270
:100050000C946E020C946E020C946E020C946E0260
:100060000C946E020C946E020100011080001124A9
:100070001FBECFEFD8E0DEBFCDBFE8E6F0E040E046
:1000800017C0B591A59135912591059107FD0CC03B
:1000900095918591EF01F92FE82F05900D92A21708
:1000A000B307D9F7FE0104C01D92A217B307E1F709
:1000B000ED36F40731F70E9463000C944E02F89479
:0200C000FFCF70
:0400C2000001020334
:1000C6008AB180648AB984B18E6084B90E94610263
:1000D6000E94680210E01DC0C12FD0E0CE010D2E97
:1000E600000CAA0B8E539F4FAF4FFC018491A7FDC6
:1000F60080810E940F02FE01EE0FFF1FE050FF4FAE
:10010600918380838FE19EE40197F1F700C00000A0
:100116001F5F143008F3912CB5C0C92DD0E0CE0175
:100126000D2E000CAA0B8E539F4FAF4FFC018491EE
:10013600A7FD80810E940F02BC0180E090E01F9223
:100146001F92332433943F920F2EFEE08F2EF02D14
:100156008F92A12CB12C6501EE24EA9413E0F12EC6
:1001660000E010E020E030E0A9010E9495010F9028
:100176000F900F900F902B013C01FE01EE0FFF1F19
:10018600E050FF4F6081718180E090E01F921F92E6
:100196003F928F9220E030E0A9010E9495010F90D6
:1001A6000F900F900F9083017201E61AF70A080B61
:1001B600190BA8019701265A3F4F4F4F5F4F1AF46C
:1001C60020E030E0A901253B31054105510524F029
:1001D60024EB30E040E050E0FF24F3949F1499F0C4
:1001E6009F1420F003E0901649F139C084EB90E0AB
:1001F600A0E0B0E07C018D01E21AF30A040B150BB6
:10020600A80197012CC084EB90E0A0E0B0E07C014F
:100216008D01E21AF30A040B150BA80197012E3182
:1002260031054105510524F42EE130E040E050E06F
:10023600273931054105510574F411C084EB90E06E
:10024600A0E0B0E07C018D01E21AF30A040B150B65
:10025600A801970104C026E930E040E050E0A8EE8E
:10026600B3E00E94430224EB30E040E050E00E94FD
:10027600F801CC0FDD1FC85FDE4F28513C4F398394
:10028600288393940F2EF3E0FF2EF02DF91408F037
:0802960044CF0E944F013FCF4D
:10029E008BB18F7B8BB985B1817F85B98BB1806432
:1002AE008BB985B18E6085B94091840050918500DF
:1002BE008091840090918500841B950B969587956F
:1002CE0080322EE4920748F5209108013091090101
:1002DE008217930718F02BB12F7B2BB920910A01AF
:1002EE0030910B018217930718F025B12D7F25B998
:1002FE0020910C0130910D018217930718F025B152
:10030E002B7F25B920910E0130910F018217930793
:0C031E0078F285B1877F85B9CBCF0895B8
:10032A004F925F926F927F92AF92BF92CF92DF927B
:10033A00EF92FF920F931F93CF93DF93CDB7DEB760
:10034A0029013A019B01AC012419350946095709CB
:10035A0089899A89AB89BC89BC01CD016A197B0953
:10036A008C099D090E942402A801970124193509C4
:10037A00460957090E94F801C601B501620F731FA9
:10038A00841F951FDF91CF911F910F91FF90EF90DE
:10039A00DF90CF90BF90AF907F906F905F904F901B
:0203AA000895B4
:1003AC00A1E21A2EAA1BBB1BFD010DC0AA1FBB1F6D
:1003BC00EE1FFF1FA217B307E407F50720F0A21BDF
:1003CC00B30BE40BF50B661F771F881F991F1A944C
:1003DC0069F760957095809590959B01AC01BD0176
:0403EC00CF010895A0
:1003F000052E97FB1EF400940E94590257FD07D06A
:100400000E94D60107FC03D04EF40C94590250957B
:0E0410004095309521953F4F4F4F5F4F089517
:10041E00ECE7F0E09081987F8770892B8083EAE784
:10042E00F0E080818064808380917A0086FDFCCF2D
:0A043E0080917800909179000895F4
:10044800DB018F939F930E944302BF91AF91A29FBC
:10045800800D911DA39F900DB29F900D11240895BA
:10046800A29FB001B39FC001A39F700D811D1124ED
:0E047800911DB29F700D811D1124911D0895DC
:100486000E943402A59F900DB49F900DA49F800DED
:06049600911D11240895E0
:10049C00EC010E9473020E947202CE010E9474024F
:0604AC00CE010E94700267
:1004B20090958095709561957F4F8F4F9F4F0895CE
:0E04C20080E480937C0087E880937A000895A0
:0C04D0001092800082E08093810008956B
:0404DC000C9400007C
:0404E0000E945F0017
:0204E400089579
:0204E600089577
:0204E800089575
:00000001FF
